S019000041646166727569744469737454657374312E7372656376
S11300000C94F8000C9415010C9415010C94150132
S11300100C9415010C9415010C9415010C946A02AE
S11300200C9415010C94A5010C94AD0D0C94790E4F
S11300300C9415010C9415010C9415010C941501E4
S11300400C9415010C94BF080C9415010C94150123
S11300500C9415010C9450030C9415010C94150187
S11300600C9415010C9497100C9415010C94BF106A
S11300700C9415010C9415010C9415010C941501A4
S11300800C9423090C9415010C9415010C9415017E
S11300900C941F080C9415010C9415010C94150173
S11300A00C9415010C9415010C94150155071108B5
S11300B01108110811081108110811085507110831
S11300C01108110811081108110811086B0711080B
S11300D01108110811081108110811087D071108E9
S11300E011081108110811081108110885071108D1
S11300F0110811081108110811081108B007110896
S11301001108110811081108110811081108110823
S1130110110811081108110811081108B80711086D
S1130120110811081108110811081108CB0711084A
S1130130110811081108110811081108D307110832
S1130140110811081108110811081108F707F60E13
S1130150220F1E10220F1E10660F8A0F1E10E60FAC
S1130160F70F1C034C0055004600410020004300DB
S1130170440043002000440065006D006F0000004F
S11301801A034C0055004600410020004C00690051
S11301906200720061007200790000000403090427
S11301A009023E00020100C03209040000010202FB
S11301B001000524001001042402060524060001A0
S11301C0070582030800FF09040100020A00000079
S11301D0070504021000050705830210000512013B
S11301E0100102000008EB03442001000102DC01BD
S11301F011241FBECFEFDAE0DEBFCDBF11E0A0E0D7
S1130200B1E0E8E4F0E302C005900D92A63BB1072B
S1130210D9F726E0A6EBB1E001C01D92AB36B207D8
S1130220E1F70E9449090C9422180C94000083B150
S113023082958F7091E08927817090E0089583B151
S113024082958695877091E08927817090E0089562
S1130250813039F42C98E0E8F0E080818F7E80834F
S113026008952C9AE0E8F0E080818061808308950D
S1130270813039F42D98E0E8F0E080818B7F808331
S113028008952D9AE0E8F0E08081846080830895E9
S1130290CF93DF93C82FD62F80FF03C0862F0E94F1
S11302A03801C1FF03C08D2F0E942801DF91CF9137
S11302B0089524E6829FC001112490938B008093BB
S11302C08A00089524E6829FC001112490938D0032
S11302D080938C00089580FF08C094E6699F900184
S11302E0112430938D0020938C0081FF08C084E694
S11302F0689FB001112470938B0060938A00089565
S1130300E0E8F0E080818B628083E1E8F0E08081C6
S11303108961808380E197E29093890080938800CB
S1130320089584B1806F84B90E94800161E083E004
S11303300E94480184E391E290938D0080938C00A5
S113034090938B0080938A0008951F920F920FB6AA
S11303500F9211240F931F932F933F934F935F9307
S11303606F937F938F939F93AF93BF93CF93DF93B9
S1130370EF93FF93C0E0D0E007EB11E093B18091DD
S1130380B601892790E00C2E02C0959587950A94B2
S1130390E2F780FF42C0C230D10504F50E94170184
S11303A0019771F4F80184819581A681B7818E5BF0
S11303B09A4FAF4FBF4F84839583A683B7832DC0D5
S11303C0F80184819581A681B78182549540A10961
S11303D0B10984839583A683B7831FC00E941F013C
S11303E0019771F4F80180819181A281B3818E5BC0
S11303F09A4FAF4FBF4F80839183A283B3830DC0C5
S1130400F80180819181A281B38182549540A10930
S1130410B10980839183A283B3832196C430D1052B
S113042009F0ACCF83B18F708093B601FF91EF9147
S1130430DF91CF91BF91AF919F918F917F916F91F8
S11304405F914F913F912F911F910F910F900FBE8C
S11304500F901F9018951092BB011092BC0110923E
S1130460BD011092BE0108951092B7011092B80117
S11304701092B9011092BA0108950E942B020E94B1
S1130480340208956091BB017091BC018091BD015B
S11304909091BE0108956091B7017091B801809167
S11304A0B9019091BA01089584B184B98AB1806F79
S11304B08AB98BB1806C8BB98BB18F7C8BB9E8E630
S11304C0F0E0808181608083EBE6F0E080818F60E2
S11304D0808308951F920F920FB60F9211242F93C9
S11304E03F934F935F936F937F938F939F93AF93B8
S11304F0BF93EF93FF930E946C032091BF0130914F
S1130500C001821B930B90930106809300060E9406
S11305106C039093C0018093BF0181E090E09093BD
S1130520C2018093C101FF91EF91BF91AF919F915F
S11305308F917F916F915F914F913F912F910F9088
S11305400FBE0F901F90189581E090E02091C30199
S11305503091C4012F37310511F080E090E0089507
S113056081E090E02091C3013091C401232B11F06C
S113057080E090E00895CF93DF93C091C501D091BE
S1130580C601FE01EE0FFF1FEE0FFF1FEE0FFF1F50
S1130590E753FE4F11821082138212821582148255
S11305A0178216820E94B002892BD9F48091C3016C
S11305B09091C40101979093C4018093C301219643
S11305C0CF37D1053CF4D093C601C093C50181E077
S11305D090E009C01092C6011092C50181E090E03C
S11305E002C080E090E0DF91CF9108958091C50131
S11305F09091C601880F991F880F991F880F991F22
S113060087539E4F0895CF92DF92EF92FF920F93FC
S11306101F93CF93DF936C017B018A01E901F89466
S11306200E94A402892B81F58091C7019091C80191
S1130630FC01EE0FFF1FEE0FFF1FEE0FFF1FE7532E
S1130640FE4FD182C082F382E28215830483D78372
S1130650C6832091C3013091C4012F5F3F4F309373
S1130660C4012093C30101968F3791052CF4909314
S1130670C8018093C70104C01092C8011092C70139
S1130680789481E090E003C0789480E090E0DF917A
S1130690CF911F910F91FF90EF90DF90CF9008952D
S11306A01F920F920FB60F9211248F939F938091F4
S11306B0C1059091C20501969093C2058093C1052E
S11306C09F918F910F900FBE0F901F90189580915E
S11306D000019091010108958091C1059091C20596
S11306E0089584B5826084BD85B5836085BD89EF36
S11306F087BDEEE6F0E08081826080830895CF922A
S1130700DF92EF92FF920F931F93CF93DF938C01AD
S1130710EB010E94F4068F3E924034F4C8010E941B
S1130720F40682319D4FBCF5C8010E94F406BC0159
S1130730990F880B990B0E94CE1323E333EB45E00A
S113074053E40E945A136B017C01BE01DD0F880B38
S1130750990B0E94CE1320E030E04AE754E40E9453
S11307605A139B01AC01C701B6010E945A149B01A4
S1130770AC016091C5057091C6058091C705909143
S1130780C8050E94EE126093C5057093C605809358
S1130790C7059093C8056091C5057091C605809101
S11307A0C7059091C805DF91CF911F910F91FF90DC
S11307B0EF90DF90CF900895CF93DF93EC0121E089
S11307C030E047E051E060E070E00E940303CE01B6
S11307D00E94ED0622E030E0AC0161E070E0CE0161
S11307E00E940303DF91CF910895CF93DF93EC012F
S11307F021E030E046E051E060E070E00E94030355
S1130800CE010E94ED0622E030E0AC0161E070E030
S1130810CE010E940303DF91CF910895CF93DF931C
S1130820EC0160E070E00E941E076BE670E0CE0110
S11308300E943A07CE010E94F50322E030E042E034
S113084051E060E070E0CE010E940303892BA9F31C
S113085022E030E044E051E060E070E0CE010E942C
S11308600303892BA9F3DF91CF9108950F931F936D
S1130870CF93DF938C010E946C03EC018091C3053C
S11308809091C4059E01281B390BC901992324F4B6
S113089088279927821B930B4A971CF1C8010E9451
S11308A0DC038091C3059091C4058C179D073CF42B
S11308B0BE01681B790BC8010E947F030EC00E9411
S11308C067032091C3053091C405821B930BBC01BF
S11308D06C0F7D1FC8010E947F03D093C405C09391
S11308E0C305DF91CF911F910F910895CF93DF93AB
S11308F0EC0160E070E001960E941E076EE170E07A
S1130900CE010E943A07DF91CF910895CF93DF93F0
S1130910EC010E940E04CE0101960E947604DF9140
S1130920CF9108958091CD059091CE0508951092B0
S1130930CE051092CD0560E083E00E946B01109219
S1130940C9051092CA051092CB051092CC050895E2
S11309500E943D0284E090E09093CE058093CD0503
S113096060E083E00E94480160E583E00E946B013F
S113097008950E943D0281E090E09093CE0580931B
S1130980CD0561E083E00E94480160E583E00E94B8
S11309906B01089582E090E09093CE058093CD059D
S11309A00E943D0261E082E00E94480180E50E94CD
S11309B0620180E00E945901089583E090E09093E1
S11309C0CE058093CD050E943D0261E081E00E9446
S11309D0480180E50E94590180E00E946201089567
S11309E09C01ACE5BCE40E94FC146093C9057093BF
S11309F0CA058093CB059093CC050E94DD0408952D
S1130A009C01ACE5BCE40E94FC146093C90570939E
S1130A10CA058093CB059093CC050E94CA0408951F
S1130A209B01AC0160EA76E881E090E00E94C71483
S1130A306093C9057093CA058093CB059093CC0548
S1130A400E94B90408959B01AC0160E679E78EEF3A
S1130A509FEF0E94C7146093C9057093CA058093E1
S1130A60CB059093CC050E94A8040895CF92DF9201
S1130A70EF92FF928091CD059091CE058230910541
S1130A80A1F11CF4019749F08BC08330910509F45E
S1130A9047C0049709F45EC083C00E944B026B01F7
S1130AA07C010E944202AB01BC014C0D5D1D6E1D18
S1130AB07F1DDB01CA0177231CF40196A11DB11D22
S1130AC0B595A795979587954091C9055091CA0505
S1130AD06091CB057091CC05481759076A077B07CD
S1130AE00CF05EC00E9497045BC00E944B026B0135
S1130AF07C010E944202C61AD70AE80AF90A8091C8
S1130B00C9059091CA05A091CB05B091CC058C156F
S1130B109D05AE05BF050CF043C00E94970440C07C
S1130B200E9442026B017C010E944B02C61AD70A42
S1130B30E80AF90A8091C9059091CA05A091CB05EC
S1130B40B091CC058C159D05AE05BF054CF50E94F2
S1130B50970426C00E944B026B017C010E94420252
S1130B60AB01BC014C0D5D1D6E1D7F1DDB01CA0177
S1130B7077231CF40196A11DB11DB595A7959795F2
S1130B8087954091C9055091CA056091CB05709134
S1130B90CC0584179507A607B70714F40E94970499
S1130BA0FF90EF90DF90CF900895CF92DF92EF9275
S1130BB0FF92CF93DF930E9442026B017C010E945B
S1130BC04B02A7019601261B370B480B590BCA0190
S1130BD0B90120E533EC40E050E00E94D714809145
S1130BE0CD059091CE058130910579F5C901805BE1
S1130BF09F4FC0E5D0E0C21BD30B07C080E590E057
S1130C00821B930BE901C05BDF4F8536910524F00D
S1130C1084E60E94620108C0992324F480E00E94C3
S1130C20620102C00E946201C536D10524F084E647
S1130C300E94590111C0DD2324F480E00E9459016F
S1130C400BC08C2F0E94590107C00497B9F2C0E56C
S1130C50D0E080E590E0E6CFDF91CF91FF90EF9078
S1130C60DF90CF900895EF92FF920F931F93CF934D
S1130C70DF9386E090E00E944B11EC0187E090E066
S1130C800E944B11A89714F088971CF40E949704B3
S1130C9032C084E090E00E944B117C0185E090E03A
S1130CA00E944B118C0182E090E00E944B11EC01F8
S1130CB083E090E00E944B110134110564F4E701D4
S1130CC0C01BD10B80E58C1B0E9462018C2F805BC2
S1130CD00E94590110C0813491055CF4C81BD90BE2
S1130CE08C2F805B0E94620180E58C1B0E9459015D
S1130CF002C00E94D505DF91CF911F910F91FF9003
S1130D00EF900895EF92FF920F931F93CF93DF9389
S1130D1081E090E00E944B11EC0180E090E00E94A1
S1130D204B11E79714F0C7971CF40E94970433C043
S1130D3084E090E00E944B11EC0185E090E00E9479
S1130D404B117C0182E090E00E944B118C0183E006
S1130D5090E00E944B11C134D10564F4C7018C1B8F
S1130D609D0BEC01805B0E94620180E58C1B0E945C
S1130D70590111C00134110564F4EC01C01BD10BFD
S1130D8080E58C1B0E9462018C2F805B0E945901BC
S1130D9002C00E94D505DF91CF911F910F91FF9062
S1130DA0EF9008958091CD059091CE058130910505
S1130DB019F0049721F008950E94820608950E9474
S1130DC0330608958091CD059091CE05892B11F0BD
S1130DD00E9436050E94D2060895880F991F880F35
S1130DE0991F8D529A4F0895880F991F880F991F44
S1130DF0FC01EE52FA4F9281892F90E0982F8827B8
S1130E002181822B0895880F991F880F991F8B5277
S1130E109A4F0895880F991F880F991FFC01EE526D
S1130E20FA4F838190E00895880F991F880F991FC6
S1130E30FC01EE52FA4F808190E00895880F991FCB
S1130E40880F991FFC01EE52FA4F61837283089553
S1130E50880F991F880F991FFC01EE52FA4F638384
S1130E600895880F991F880F991FFC01EE52FA4FBD
S1130E7013820895880F991F880F991FFC01EE5261
S1130E80FA4F608308950E94F6024091B900E42F5E
S1130E90E87F4E2F50E0FA013897E135F10508F06C
S1130EA0C0C0EA5AFF4F0C94F614DC01ED91FC919A
S1130EB01197EE0FFF1FEE0FFF1FEE52FA4F208126
S1130EC0220F12969C91822F892B8093BB0085E878
S1130ED08093BC00AEC0DC011496ED91FC91159793
S1130EE080818093BB0085E88093BC0081E090E022
S1130EF09093D0058093CF059CC085ED8093BC0072
S1130F000E94BB021092D10508952091CF05309123
S1130F10D005FC01468157814217530761F485EDE2
S1130F208093BC000E94BB021092D1051092D005A0
S1130F301092CF05089584819581FC01E20FF31F7F
S1130F4080818093BB0085E88093BC008091CF05AD
S1130F509091D00501969093D0058093CF0569C0F8
S1130F6085ED8093BC000E94BB021092D1050895C8
S1130F70FC018681978101972091CF053091D0059E
S1130F808217930721F485E88093BC0052C085EC56
S1130F908093BC004EC085ED8093BC000E94BB02D0
S1130FA01092D10508952091CF053091D00540913C
S1130FB0BB00DC011496ED91FC911597E20FF31F31
S1130FC040832F5F3F4F3093D0052093CF05169673
S1130FD08D919C91179701972817390721F485E87B
S1130FE08093BC0026C085EC8093BC0022C0209175
S1130FF0BB00DC011496ED91FC9115978091CF050F
S11310009091D005E80FF91F20831092D00510921B
S1131010CF0585ED8093BC000E94BB021092D105E0
S1131020089585ED8093BC000E94BB021092D10507
S1131030089581E08093D1050E94371108951F928D
S11310400F920FB60F9211242F933F934F935F93F8
S11310506F937F938F939F93AF93BF93EF93FF937C
S11310600E944307FF91EF91BF91AF919F918F91A0
S11310707F916F915F914F913F912F910F900FBE90
S11310800F901F9018958091D10581110AC00E947C
S1131090B002892B31F485EE8093BC0081E080930B
S11310A0D105089586E08093B80085E88093BC005C
S11310B00895882311F0889801C0889A8AE18A9556
S11310C0F1F700C0799A8AE18A95F1F700C0799A1C
S11310D08AE18A95F1F700C0089580B3836080BBEC
S11310E0889A899884E190E0899A2AE12A95F1F70F
S11310F000C089982AE12A95F1F700C00197A1F769
S113110008959091FF05913071F01CF4992331F00A
S113111019C0923069F0933081F014C05C9A2C9A13
S11311205E982E9812C05C9A2E9A5E982C980DC0E8
S11311305E9A2E9A5C982C9808C05E9A2C9A5C98B9
S11311402E9803C01092FF050895813031F48091E8
S1131150FF058F5F8093FF0505C08091FF058150D7
S11311608093FF058091FF0584301CF01092FF05E9
S1131170089588231CF483E08093FF0508951F924B
S11311800F920FB60F9211242F933F934F935F93B7
S11311906F937F938F939F93AF93BF93EF93FF933B
S11311A0809109010E948108FF91EF91BF91AF9155
S11311B09F918F917F916F915F914F913F912F916B
S11311C00F900FBE0F901F9018959091FE059130CF
S11311D071F01CF4992331F019C0923069F0933006
S11311E081F014C05D9A2D9A5F982F9812C05D9A71
S11311F02F9A5F982D980DC05F9A2F9A5D982D981D
S113120008C05F9A2D9A5D982F9803C01092FE052E
S11312100895813031F48091FE058F5F8093FE053F
S113122005C08091FE0581508093FE058091FE05E6
S113123084301CF01092FE05089588231CF483E08A
S11312408093FE0508951F920F920FB60F921124FA
S11312502F933F934F935F936F937F938F939F93BA
S1131260AF93BF93EF93FF93809108010E94E50829
S1131270FF91EF91BF91AF919F918F917F916F916A
S11312805F914F913F912F910F900FBE0F901F9040
S11312901895CF93DF9300D000D01F92CDB7DEB75F
S11312A084B7877F84BF0FB6F894A89580916000B7
S11312B0886180936000109260000FBE85B78068DB
S11312C085BF90E080E80FB6F89480936100909316
S11312D061000FBE0E9452080E9471030E94910196
S11312E060E583E00E946B010E9454020E94FA10A0
S11312F078940E946D082FEF84E39CE02150804095
S11313009040E1F700C0000060E070E08AE090E007
S11313100E941E0769E270E08AE090E00E943A07AA
S113132063E370E08AE090E00E94280700E010E0A8
S1131330C8010E9453110F5F1F4F08301105C1F7F8
S113134088E090E00E948604C12CD12C00E010E0DB
S11313500F2EF3E02F2EF02D312C88248394912C22
S11313606894442442F8512C6894662461F8712CE2
S1131370CE0101967C010F2EFDEAAF2EF1E0BF2EC7
S1131380F02D0E9443080E94891288E090E00E9498
S113139036040E94E2060E9409110E946C03801B1D
S11313A0910B9C0122F422273327281B390B293C5B
S11313B031053CF30E946C038C010E949204892B3A
S11313C0A1F592E0C916D104B9F024F4CA94CD2849
S11313D051F029C093E0C916D104A9F024E0C21643
S11313E0D104C1F020C06AE070E080E090E00E9487
S11313F01005C62CD72C19C08AE590E00E94000580
S1131400C22CD32C12C08AE590E00E94F004C42CB4
S1131410D52C0BC064EF71E080E090E00E942305BE
S1131420C82CD92C02C0C82CD92C85E0E1EBF1E002
S1131430D70101900D928A95E1F7882D992D0E948C
S11314404B119F938F93BF92AF92FF92EF920E94A2
S11314503815C7010E9488100F900F900F900F90BD
S11314600F900F908ECF292F33272230310559F05A
S11314702330310569F02130310521F582E190E016
S11314802EED31E028C08EE390E020EA31E023C065
S113149099278130910551F018F0029769F017C02F
S11314A0ECE9F1E0849190E09F0115C0E0E8F1E0FF
S11314B0849190E09F010FC0E2E6F1E0849190E016
S11314C09F0109C080E090E020E030E004C080E0AB
S11314D090E020E030E0FA01318320830895CF9337
S11314E0DF93EC01FC0170968BE0DF011D928A957D
S11314F0E9F782E08C83898783E08E8761E0CE01FF
S113150001960E94F80C882361F061E0CE010696F2
S11315100E94F80C882329F061E0CE010B960E940A
S1131520F80CDF91CF910895FC01909162069430FC
S113153031F584899589A689B789892B8A2B8B2BC8
S113154001F181818F708093E9002091F3008091F3
S1131550F20090E0922B892BB1F0E8EEF0E090815C
S113156080818E77808395FD10C00E946C0D81115F
S11315700DC0E8EEF0E090819E779083089582E0BC
S1131580089582E0089580E0089580E00895FC01C4
S113159090916206943099F484899589A689B789D3
S11315A0892B8A2B8B2B59F081818F708093E900D2
S11315B08091E80080FF03C0CF010E94940A08953F
S11315C008950895CF93DF93FC019091E80093FF71
S11315D09DC0208130E08091670690916806821753
S11315E0930709F093C0EF0180916406813259F0AA
S11315F018F48032C1F18AC0823209F462C08332A5
S113160009F474C083C080916306813A09F07EC0F6
S1131610E8EEF0E08081877F8083808180FFFDCFCA
S11316208C899D89AE89BF89E1EFF0E08083492FE1
S11316305A2F6B2F77274083AD0166277727408386
S11316408B2F9927AA27BB278083888D8083898D38
S113165080838A8D8083E8EEF0E080818E778083BA
S11316600E94480D53C080916306813209F04EC038
S1131670E8EEF0E08081877F808305C08091620678
S1131680882309F443C0808182FFF8CFE1EFF0E0C2
S113169030812081908180813C8B2D8B9E8B8F8B20
S11316A08081888F8081898F80818A8FE8EEF0E045
S11316B080818B7780830E94480DCE010E94E00ACE
S11316C025C080916306813209F5E8EEF0E080815F
S11316D0877F80830E94480D8091650690916606FD
S11316E0998B888BCE010E944A1110C080916306A9
S11316F0813261F4E8EEF0E08081877F80830E948C
S1131700480D60916506CE010E94E10ADF91CF91F8
S11317100895CF92DF92FF920F931F93CF93DF939D
S11317202091690630916A062617370758F061152B
S1131730710539F4E8EEF0E020812E7720839B01D7
S113174001C09B01A82FB92F10E0E8EEF0E063EF91
S113175070E042EF50E00F2EF1EFCF2ED12CF02DA0
S113176001E0F12C30C080916206882309F442C064
S1131770853009F441C0808183FD40C0808182FDB1
S113178032C0808180FF1FC0EB011881EA0188818B
S113179090E0912B2115310579F08830910560F4A2
S11317A01D91E60118832150310901962115310557
S11317B019F088309105A1F7102F089709F01F2D13
S11317C080818E7780832115310569F61111CBCF85
S11317D00AC080916206882399F0853099F080814F
S11317E083FF03C011C0E8EEF0E0808182FFF1CFF7
S11317F080E00BC082E009C083E007C081E005C03F
S113180082E003C083E001C081E0DF91CF911F91AA
S11318100F91FF90DF90CF900895CF92DF92FF92C7
S11318200F931F93CF93DF932091690630916A063B
S11318302617370758F06115710539F4E8EEF0E022
S113184020812E7720839B0101C09B01E82FF92F73
S113185010E0A8EEB0E063EF70E042EF50E00F2E2E
S1131860F1EFCF2ED12CF02D01E0F12C31C080917D
S11318706206882309F443C0853009F442C08C9180
S113188083FD41C08C9182FD33C08C9180FF20C0C8
S1131890EB011881EA01888190E0912B2115310533
S11318A081F08830910568F41491E601188331962B
S11318B02150310901962115310519F0883091051F
S11318C099F7102F089709F01F2D8C918E778C9320
S11318D02115310561F61111CACF0AC08091620643
S11318E0882399F0853099F0808183FF03C011C06B
S11318F0E8EEF0E0808182FFF1CF80E00BC082E06F
S113190009C083E007C081E005C082E003C083E032
S113191001C081E0DF91CF911F910F91FF90DF9083
S1131920CF9008958F929F92BF92CF92DF92EF92C1
S1131930FF920F931F93CF93DF93873070F126C0EC
S1131940292F2F70E7012883891731F0E801788166
S11319502081E401588103C0242F762F5B2D21FFC1
S113196012C03C913E7F3C9330813D7F30833C915B
S113197031603C93E80178832083E4015883E601D5
S11319802881222344F49F5F9730D1F68F7080938F
S1131990E90081E021C080E01FC0982F9F709093E0
S11319A0E900982F242F762F50E0ABEEB0E0EDEE57
S11319B0F0E00CEE10E00F2EF0EF8F2E912CF02DB6
S11319C00F2EFEEECF2ED12CF02D0F2EF9EEEF2E92
S11319D0F12CF02DB12CC3CFDF91CF911F910F913A
S11319E0FF90EF90DF90CF90BF909F908F900895DD
S11319F0EF92FF920F931F93CF93DF936623F1F13E
S1131A00062FC82FD92F10E00F2EF6E0FF2EF02D51
S1131A106894EE24E1F85881552351F19C81E981C1
S1131A20FA816B81852F8F70873050F5923010F4D6
S1131A304E2D01C04F2DE930F10550F028E030E083
S1131A4090E09F5F220F331F2E173F07D0F301C092
S1131A5090E09295907F492B90E4699FB001112406
S1131A60551F5527551F652B0E94920C882349F05A
S1131A701F5F25960113CFCF81E003C081E001C031
S1131A8080E0DF91CF911F910F91FF90EF90089527
S1131A9080916306882344F0E8EEF0E014C080915E
S1131AA06206811103C00895E8EEF0E0808182FFB0
S1131AB0F6CFE8EEF0E080818B7780830895809103
S1131AC06206882341F0808180FFF9CFE8EEF0E0E0
S1131AD080818E77808308950F931F93CF93DF9334
S1131AE02091E4003091E50065E6ACEEB0E0E8EE6C
S1131AF0F0E00BEE10E044EE50E001C09C019C913C
S1131B00892F817090FD1DC020C0809162068823BA
S1131B1081F0853081F0E801888185FD0EC0EA01FD
S1131B20888199812817390751F3615039F784E086
S1131B300FC082E00DC083E00BC081E009C080E0EB
S1131B4007C0808180FFE1CFFACF908192FFDDCF83
S1131B50DF91CF911F910F9108951F920F920FB6AD
S1131B600F9211242F933F934F935F936F937F931F
S1131B708F939F93AF93BF93EF93FF938091E10073
S1131B8082FF0BC08091E20082FF07C0E1EEF0E02B
S1131B9080818B7F80830E9443108091DA0080FFD4
S1131BA01FC08091D80080FF1BC0EAEDF0E0808167
S1131BB08E7F80838091D90080FF0DC080E189BD34
S1131BC082E189BD09B400FEFDCF81E08093620605
S1131BD00E943E1105C019BC109262060E943F117A
S1131BE08091E10080FF17C08091E20080FF13C064
S1131BF0E2EEF0E080818E7F80838081806180834B
S1131C00E8EDF0E080818062808319BC85E08093F8
S1131C1062060E9443108091E10084FF30C08091ED
S1131C20E20084FF2CC080E189BD82E189BD09B452
S1131C3000FEFDCFE8EDF0E080818F7D8083E1EE52
S1131C40F0E080818F7E8083E2EEF0E080818F7E01
S1131C50808380818160808380915E06882321F067
S1131C6084E08093620609C08091E300882314F025
S1131C7081E001C083E0809362060E94431080915A
S1131C80E10083FF25C08091E20083FF21C0E1EEE3
S1131C90F0E08081877F808382E0809362061092E7
S1131CA05E0680818E7F8083E2EEF0E080818E7F0D
S1131CB0808380818061808342E060E080E00E94D4
S1131CC0920CE0EFF0E08081886080830E944310F2
S1131CD0FF91EF91BF91AF919F918F917F916F9100
S1131CE05F914F913F912F910F900FBE0F901F90D6
S1131CF018951F920F920FB60F921124EF92FF9234
S1131D000F931F932F933F934F935F936F937F93FF
S1131D108F939F93AF93BF93CF93DF93EF93FF93EF
S1131D20C091E900CF708091EC00D82FD17080FD74
S1131D30D0E80F2EF9EEEF2EF12CF02DF7011082E2
S1131D4000EF10E0F8018081877F808378940E94FF
S1131D50CA0EF7011082F801808188608083CD2B40
S1131D60CF70F701C083FF91EF91DF91CF91BF91C5
S1131D70AF919F918F917F916F915F914F913F911F
S1131D802F911F910F91FF90EF900F900FBE0F9026
S1131D901F9018950F931F93CF93DF93CDB7DEB7A2
S1131DA0AA970FB6F894DEBF0FBECDBFE3E6F6E008
S1131DB02BE636E0A1EFB0E08C9181932E173F071C
S1131DC0D9F70E9445118091E80083FF37C1E3E60B
S1131DD0F6E020813181832F90E08A30910508F06C
S1131DE02DC1FC01E955FF4F0C94F614203821F065
S1131DF0223809F023C108C080915F0690916006E3
S1131E00992389F082600FC0809167068F708730B4
S1131E1008F014C1E9EEF0E080838091EB0085FBCB
S1131E20882780F91082E8EEF0E09081977F908314
S1131E30A1EFB0E08C931C9280818E7780830E9406
S1131E40480DFCC0222309F408C1223009F0F6C071
S1131E5009C181E0333009F080E0809360062CC032
S1131E60809167068F709FEF980F963008F0E6C058
S1131E708093E9009091EB0090FF1EC0909164065E
S1131E80933031F4EBEEF0E080818062808314C003
S1131E90EBEEF0E090819061908321E030E0A901C5
S1131EA002C0440F551F8A95E2F7AAEEB0E04C93A6
S1131EB01C928081886080831092E900E8EEF0E053
S1131EC08081877F80830E94480DB8C02111B6C0ED
S1131ED0109165061F77E3EEF0E080818078812B16
S1131EE08083E8EEF0E08081877F80830E94480D44
S1131EF0E8EEF0E0808180FFFDCFE3EEF0E080814A
S1131F0080688083111102C082E001C083E0809365
S1131F10620694C02058223008F090C08091650673
S1131F20909166068C3D53E09507A1F583E08A8382
S1131F308AE289835FB7F894DE01139620E03EE0DD
S1131F4041E2E32FF0E040935700849120FF03C067
S1131F5082958F703F5F8F708A3018F090E0C7963B
S1131F6002C090E0C0968D939D932F5F243149F772
S1131F705FBF08EE10E0F8018081877F80836AE20A
S1131F8070E0CE0101960E94890BF80180818B7765
S1131F90808354C06091670670916806AE014F5FFC
S1131FA05F4F0E94330ABC01892B09F447C008EE35
S1131FB010E0F8019081977F908389819A810E9433
S1131FC00D0CF80180818B77808338C02038B1F5FF
S1131FD0E8EEF0E08081877F808380915E068093C5
S1131FE0F10080818E7780830E94480D27C02111E3
S1131FF025C0809165069091660699270297F4F4AE
S1132000E8EEF0E08081877F80838091650680938D
S11320105E060E94480D80915E06882321F084E0CC
S11320208093620609C08091E300882314F081E064
S113203001C084E0809362060E9440118091E80010
S113204083FF16C0E8EEF0E08081877F8083EBEEAB
S1132050F0E08081806280830BC0809165068130CE
S113206069F7F7CE80916506882309F4F9CE24CF69
S1132070AA960FB6F894DEBF0FBECDBFDF91CF9105
S11320801F910F9108950895CF938091620688233C
S1132090A1F0C091E900CF708091EC00982F91706D
S11320A080FD90E8C92B1092E9008091E80083FD3F
S11320B00E94CA0ECF70C093E900CF910895209179
S11320C002063091030620343105FCF440914406A5
S11320D050914506FA01EC5FF94F80834F5F5F4FE3
S11320E0403451052CF4509345064093440604C0F3
S11320F010924506109244062F5F3F4F309303061B
S11321002093020681E090E0089580E090E0089535
S1132110CF93DF93EC018881882331F021960E94CC
S11321205F1089918111FBCFDF91CF9108951F92A8
S11321300F920FB60F9211242F933F934F935F93F7
S11321406F937F938F939F93AF93BF93EF93FF937B
S11321508091CE008E3711F40E949704FF91EF9185
S1132160BF91AF919F918F917F916F915F914F91AB
S11321703F912F910F900FBE0F901F9018951F92B3
S11321800F920FB60F9211248F939F93EF93FF93A7
S11321908091020690910306892B19F1E09146067D
S11321A0F0914706EC5FF94F80818093CE008091D7
S11321B04606909147060196803491052CF490933D
S11321C047068093460604C01092470610924606BE
S11321D080910206909103060197909303068093E1
S11321E00206FF91EF919F918F910F900FBE0F9078
S11321F01F90189588E090E09093CD008093CC00D8
S1132200E9ECF0E08081806C808380818861808348
S113221008958091020690910306892B39F18091EB
S1132220C80085FF23C0E0914606F0914706EC5FA5
S1132230F94F80818093CE008091460690914706A5
S11322400196803491052CF49093470680934606BA
S113225004C010924706109246068091020690919F
S113226003060197909303068093020608958AE07B
S113227091E00E94C70A0E944410089508950895A9
S11322808AE091E00E946F0A08958AE091E00E943A
S1132290E20A08950895880F991FFC01E25BF94F43
S11322A0808191810895EF92FF920F931F93CF93B2
S11322B0DF93EC0181E00E9459088FE39FE10197CD
S11322C0F1F700C0000060E070E0CE010E941E073C
S11322D0BE01605D7F4FCE010E943A0764E070E06A
S11322E0CE010E94280722E030E04CE456E060E092
S11322F070E08AE090E00E9403038AE090E00E948C
S1132300ED0621E030E0AC0161E070E08AE090E0AD
S11323100E94030302C00E9443088AE090E00E94E6
S1132320F406843B9105B9F760E070E08AE090E040
S11323300E941E07CE010E94140780932E0123E001
S113234030E04CE251E060E070E08AE090E00E940E
S1132350030322E030E04CE251E060E070E0CE01A3
S11323600E940303CE010E94ED0621E030E0AC019F
S113237061E070E0CE010E9403030CE211E002C0B0
S11323800E944308CE010E94F406F801228130E045
S113239082179307A9F760E070E0CE010E941E0740
S11323A003E511E00F2EFDEAEF2EF1E0FF2EF02DF4
S11323B023E030E0A80160E070E0CE010E94030356
S11323C0892BB1F30D5F1F4FE016F10689F70FE279
S11323D011E00F2EF3E5EF2EF1E0FF2EF02D23E0B8
S11323E030E0A80160E070E0CE010E940303892B75
S11323F0B1F30D5F1F4FE016F10689F7DF91CF911E
S11324001F910F91FF90EF900895CF93DF93EC010C
S113241022E030E04AE251E060E070E0CE010E9448
S11324200303892BA9F3CE010E94ED0621E030E0DD
S1132430AC0161E070E0CE010E940303892B99F3A3
S113244023E030E047E251E060E070E0CE010E941A
S11324500303892BA9F3DF91CF910895CF93DF93E1
S1132460EC0122E030E045E251E060E070E0CE01B2
S11324700E940303892BA9F3CE010E94030721E0E4
S113248030E0AC0161E070E0CE010E940303892BCF
S113249099F3DF91CF910895CF93DF93C0E0D0E01B
S11324A0CE010E942E122196C830D105C9F7DF91C2
S11324B0CF9108951F93CF93DF93C0E0D0E0CE0176
S11324C00E94F406892B79F40E946D08C0E0D0E0E4
S11324D01FEF86B116B9CE010E9453112196C83060
S11324E0D105B9F70FC02196C830D10541F70AC00C
S11324F060E070E0CE010E941E072196C830D1052D
S1132500B9F703C0C0E0D0E0F3CFDF91CF911F91C2
S113251008950F931F93CF93DF930E946C03209130
S11325204A0630914B06821B930B9C0122F422270E
S11325303327281B390B2A3131050CF444C00E947F
S11325406C0390934B0680934A060E944C123BC046
S1132550CE010E940A0782FF06C0CE010E94051226
S1132560CE010E943107CE010E94F406892B31F07E
S1132570CE010E94F406F8019183808321960E5FB8
S11325801F4FC830D10521F70E946C03C091480643
S1132590D09149068C1B9D0B8E3791055CF40E94EB
S11325A06C03C81BD90B0E9467038D5791098C17C4
S11325B09D0774F40E946C03909349068093480627
S11325C00E945A1205C00EE416E0C0E0D0E0C0CF6D
S11325D0DF91CF911F910F9108955058BB27AA27DF
S11325E00E9405130C9420140E94121438F00E94C7
S11325F0191420F039F49F3F19F426F40C940F14A5
S11326000EF4E095E7FB0C940914E92F0E943114B1
S113261058F3BA17620773078407950720F079F413
S1132620A6F50C9453140EF4E0950B2EBA2FA02D9E
S11326300B01B90190010C01CA01A0011124FF276B
S1132640591B99F0593F50F4503E68F11A16F04066
S1132650A22F232F342F4427585FF3CF4695379565
S11326602795A795F0405395C9F77EF41F16BA0B2A
S1132670620B730B840BBAF09150A1F0FF0FBB1FD8
S1132680661F771F881FC2F70EC0BA0F621F731F21
S1132690841F48F4879577956795B795F7959E3F7E
S11326A008F0B0CF9395880F08F09927EE0F97950F
S11326B0879508950E946E130C9420140E94191497
S11326C058F00E94121440F029F45F3F29F00C9452
S11326D0091451110C9454140C940F140E943114C5
S11326E068F39923B1F3552391F3951B550BBB273D
S11326F0AA2762177307840738F09F5F5F4F220F82
S1132700331F441FAA1FA9F335D00E2E3AF0E0E878
S113271032D091505040E695001CCAF72BD0FE2FC2
S113272029D0660F771F881FBB1F26173707480756
S1132730AB07B0E809F0BB0B802DBF01FF2793580E
S11327405F4F3AF09E3F510578F00C9409140C94B5
S113275054145F3FE4F3983ED4F3869577956795D8
S1132760B795F7959F5FC9F7880F911D9695879543
S113277097F90895E1E0660F771F881FBB1F621762
S113278073078407BA0720F0621B730B840BBA0B20
S1132790EE1F88F7E0950895E89409C097FB3EF48E
S11327A090958095709561957F4F8F4F9F4F99239A
S11327B0A9F0F92F96E9BB279395F6958795779518
S11327C06795B795F111F8CFFAF4BB0F11F460FFD8
S11327D01BC06F5F7F4F8F4F9F4F16C0882311F030
S11327E096E911C0772321F09EE8872F762F05C044
S11327F0662371F096E8862F70E060E02AF09A95DF
S1132800660F771F881FDAF7880F9695879597F9D3
S1132810089597F99F6780E870E060E008959FEF5E
S113282080EC089500240A94161617061806090663
S1132830089500240A941216130614060506089532
S1132840092E0394000C11F4882352F0BB0F40F4BA
S1132850BF2B11F460FF04C06F5F7F4F8F4F9F4FFA
S1132860089557FD9058440F551F59F05F3F71F07C
S11328704795880F97FB991F61F09F3F79F08795E3
S11328800895121613061406551FF2CF4695F1DF6C
S113289008C0161617061806991FF1CF86957105FC
S11328A0610508940895E894BB2766277727CB0130
S11328B097F908950E946D140C9420140E94121428
S11328C038F00E94191420F0952311F00C94091487
S11328D00C940F1411240C9454140E94311470F3AA
S11328E0959FC1F3950F50E0551F629FF001729FB1
S11328F0BB27F00DB11D639FAA27F00DB11DAA1FC0
S1132900649F6627B00DA11D661F829F2227B00D0C
S1132910A11D621F739FB00DA11D621F839FA00D97
S1132920611D221F749F3327A00D611D231F849FE7
S1132930600D211D822F762F6A2F11249F5750403E
S11329409AF0F1F088234AF0EE0FFF1FBB1F661FB9
S1132950771F881F91505040A9F79E3F510580F082
S11329600C9409140C9454145F3FE4F3983ED4F38C
S1132970869577956795B795F795E7959F5FC1F726
S1132980FE2B880F911D9695879597F90895DB0185
S11329908F939F930E940B15BF91AF91A29F800DBF
S11329A0911DA39F900DB29F900D11240895052EA3
S11329B097FB1EF400940E94EE1457FD07D00E946A
S11329C0161507FC03D04EF40C94EE145095409564
S11329D0309521953F4F4F4F5F4F089590958095C7
S11329E0709561957F4F8F4F9F4F0895EE0FFF1F96
S11329F00590F491E02D0994A29FB001B39FC0010A
S1132A00A39F700D811D1124911DB29F700D811D16
S1132A101124911D08950E94FC14A59F900DB49F4C
S1132A20900DA49F800D911D11240895A1E21A2EEA
S1132A30AA1BBB1BFD010DC0AA1FBB1FEE1FFF1F5E
S1132A40A217B307E407F50720F0A21BB30BE40BAE
S1132A50F50B661F771F881F991F1A9469F76095F5
S1132A607095809590959B01AC01BD01CF010895AF
S1132A70AEE0B0E0EEE3F5E10C94F9170D891E89A0
S1132A8086E08C831A8309838FEF9FE79E838D836F
S1132A90AE01475E5F4F6F89788DCE0101960E942B
S1132AA05A15EF81F885E00FF11F10822E96E4E0AD
S1132AB00C941518ABE0B0E0E0E6F5E10C94EB17EC
S1132AC06C017B018A01FC0117821682838181FFDC
S1132AD0CCC1CE0101963C01F6019381F70193FD2F
S1132AE0859193FF81917F01882309F4BAC18532CE
S1132AF039F493FD859193FF81917F01853229F407
S1132B00B60190E00E945117E7CF912C212C312C73
S1132B10FFE1F315D8F08B3279F038F4803279F094
S1132B208332A1F4232D20611DC08D3261F08033E6
S1132B3069F4232D216016C0832D8260382EE32D85
S1132B40E4603E2E2AC0F32DF8601DC037FC2DC072
S1132B5020ED280F2A3040F08E32B9F436FC81C1C2
S1132B60232D2064322E19C036FE06C08AE0989EBA
S1132B70200D1124922E11C0EAE02E9E200D112466
S1132B80222EF32DF0623F2E08C08C3621F4832DC3
S1132B908068382E02C0883641F4F70193FD859190
S1132BA093FF81917F018111B3CF982F9F7D95541D
S1132BB0933028F40C5F1F4F9FE399830DC0833635
S1132BC031F0833771F0833509F059C021C0F80121
S1132BD0808189830E5F1F4F88248394912C530135
S1132BE013C02801F2E04F0E511CF801A080B180FF
S1132BF036FE03C0692D70E002C06FEF7FEFC501A0
S1132C000E9446174C018201F32DFF773F2E16C018
S1132C10280122E0420E511CF801A080B18036FE4A
S1132C2003C0692D70E002C06FEF7FEFC5010E9401
S1132C303B174C01F32DF0683F2E820133FC1BC07F
S1132C40822D90E088169906B0F4B60180E290E0F7
S1132C500E9451172A94F4CFF50137FC859137FE71
S1132C6081915F01B60190E00E94511721102A94CE
S1132C7021E0821A91088114910471F7E8C0843626
S1132C8011F0893641F5F80137FE07C06081718182
S1132C90828193810C5F1F4F08C060817181072E70
S1132CA0000C880B990B0E5F1F4FF32DFF763F2E00
S1132CB097FF09C090958095709561957F4F8F4FD0
S1132CC09F4FF0683F2E2AE030E0A3010E948D1749
S1132CD0882E861845C0853731F4232D2F7EB22ED9
S1132CE02AE030E025C0932D997FB92E8F36C1F0AC
S1132CF018F4883579F0B5C0803719F0883721F099
S1132D00B0C0E92FE061BE2EB4FE0DC0FB2DF4600F
S1132D10BF2E09C034FE0AC0292F2660B22E06C079
S1132D2028E030E005C020E130E002C020E132E0DC
S1132D30F801B7FE07C060817181828193810C5FC5
S1132D401F4F06C06081718180E090E00E5F1F4FCD
S1132D50A3010E948D17882E8618FB2DFF773F2E26
S1132D6036FE0DC0232D2E7FA22E891458F434FE76
S1132D700BC032FC09C0832D8E7EA82E05C0B82C52
S1132D80A32C03C0B82C01C0B92CA4FE0FC0FE01B3
S1132D90E80DF11D8081803321F49A2D997EA92EAE
S1132DA009C0A2FE06C0B394B39404C08A2D8678E9
S1132DB009F0B394A3FC11C0A0FE06C0B21488F4B9
S1132DC0280C922C9B180EC0B21460F4B60180E259
S1132DD090E00E945117B394F7CFB21418F42B1853
S1132DE002C0982C212CA4FE10C0B60180E390E010
S1132DF00E945117A2FE17C0A1FC03C088E790E00F
S1132E0002C088E590E0B6010CC08A2D867859F09E
S1132E10A1FE02C08BE201C080E2A7FC8DE2B601F4
S1132E2090E00E945117891438F4B60180E390E0D1
S1132E300E9451179A94F7CF8A94F301E80DF11D7B
S1132E408081B60190E00E9451178110F5CF2220B5
S1132E5009F442CEB60180E290E00E9451172A9410
S1132E60F6CFF6018681978102C08FEF9FEF2B96F4
S1132E70E2E10C940718FC010590615070400110C8
S1132E80D8F7809590958E0F9F1F0895FC0161508F
S1132E90704001900110D8F7809590958E0F9F1F78
S1132EA008950F931F93CF93DF93FB01238121FD9B
S1132EB003C08FEF9FEF2CC022FF16C046815781BD
S1132EC0248135814217530744F4A081B1819D01C7
S1132ED02F5F3F4F318320838C93268137812F5F6F
S1132EE03F4F3783268314C08B01EC01FB01008420
S1132EF0F185E02D0995892BE1F6D80116968D917F
S1132F009C911797019617969C938E931697CE01D2
S1132F10DF91CF911F910F910895FA01AA272830CC
S1132F2051F1203181F1E8946F936E7F6E5F7F4F92
S1132F308F4F9F4FAF4FB1E03ED0B4E03CD0670F0E
S1132F40781F891F9A1FA11D680F791F8A1F911D61
S1132F50A11D6A0F711D811D911DA11D20D009F4B1
S1132F6068943F912AE0269F11243019305D3193F3
S1132F70DEF6CF010895462F4770405D4193B3E0DC
S1132F800FD0C9F7F6CF462F4F70405D4A3318F083
S1132F90495D31FD4052419302D0A9F7EACFB4E034
S1132FA0A6959795879577956795BA95C9F70097EC
S1132FB06105710508959B01AC010A2E069457958D
S1132FC0479537952795BA95C9F7620F731F841FE4
S1132FD0951FA01D08952F923F924F925F926F927A
S1132FE07F928F929F92AF92BF92CF92DF92EF9295
S1132FF0FF920F931F93CF93DF93CDB7DEB7CA1B16
S1133000DB0B0FB6F894DEBF0FBECDBF09942A8840
S1133010398848885F846E847D848C849B84AA84E8
S1133020B984C884DF80EE80FD800C811B81AA8175
S1133030B981CE0FD11D0FB6F894DEBF0FBECDBF40
S10B3040ED010895F894FFCF9F
S1133048F47E115016400F26010100831000000180
S113305804100000018208000001000000000000C4
S11330680000000000004F0015070062021229004A
S11330781110010A30003F46003164004063002EFD
S113308801001B00003E31001404002D000016004E
S11330980018030207010208010096000097FD00CA
S11330A8E30000E40400E50200E60100E70300F59C
S11330B80200D90500DBCE00DC0300DDF8009F0028
S11330C800A33C00B70000BB3C00B20900CA0901D8
S11330D8980101B01701AD0000FF05010005019931
S11330E80501A61B01AC3E01A71F00300025640A98
S10930F80020202020004E
S9030000FC
